{
  "contractName": "Ballot",
  "abi": [
    {
      "inputs": [],
      "payable": false,
      "stateMutability": "nonpayable",
      "type": "constructor"
    },
    {
      "constant": true,
      "inputs": [],
      "name": "chairperson",
      "outputs": [
        {
          "internalType": "address",
          "name": "",
          "type": "address"
        }
      ],
      "payable": false,
      "stateMutability": "view",
      "type": "function"
    },
    {
      "constant": true,
      "inputs": [
        {
          "internalType": "uint256",
          "name": "",
          "type": "uint256"
        }
      ],
      "name": "proposals",
      "outputs": [
        {
          "internalType": "uint256",
          "name": "",
          "type": "uint256"
        }
      ],
      "payable": false,
      "stateMutability": "view",
      "type": "function"
    },
    {
      "constant": true,
      "inputs": [
        {
          "internalType": "address",
          "name": "",
          "type": "address"
        }
      ],
      "name": "voters",
      "outputs": [
        {
          "internalType": "uint256",
          "name": "weight",
          "type": "uint256"
        },
        {
          "internalType": "bool",
          "name": "voted",
          "type": "bool"
        },
        {
          "internalType": "uint8",
          "name": "vote",
          "type": "uint8"
        }
      ],
      "payable": false,
      "stateMutability": "view",
      "type": "function"
    },
    {
      "constant": false,
      "inputs": [
        {
          "internalType": "address",
          "name": "toVoter",
          "type": "address"
        }
      ],
      "name": "register",
      "outputs": [],
      "payable": false,
      "stateMutability": "nonpayable",
      "type": "function"
    },
    {
      "constant": false,
      "inputs": [
        {
          "internalType": "uint8",
          "name": "toProposal",
          "type": "uint8"
        }
      ],
      "name": "vote",
      "outputs": [],
      "payable": false,
      "stateMutability": "nonpayable",
      "type": "function"
    },
    {
      "constant": true,
      "inputs": [],
      "name": "winningProposal",
      "outputs": [
        {
          "internalType": "uint256",
          "name": "winningProposal_",
          "type": "uint256"
        }
      ],
      "payable": false,
      "stateMutability": "view",
      "type": "function"
    }
  ],
  "bytecode": "0x608060405234801561001057600080fd5b50600080546001600160a01b03191633178082556001600160a01b03168152600160208190526040909120556102fe8061004b6000396000f3fe608060405234801561001057600080fd5b50600436106100625760003560e01c8063013cf08b146100675780632e4176cf146100965780634420e486146100ba578063609ff1bd146100e2578063a3ec138d146100ea578063b3f98adc14610131575b600080fd5b6100846004803603602081101561007d57600080fd5b5035610151565b60408051918252519081900360200190f35b61009e610165565b604080516001600160a01b039092168252519081900360200190f35b6100e0600480360360208110156100d057600080fd5b50356001600160a01b0316610174565b005b6100846101d6565b6101106004803603602081101561010057600080fd5b50356001600160a01b0316610228565b60408051938452911515602084015260ff1682820152519081900360600190f35b6100e06004803603602081101561014757600080fd5b503560ff1661024d565b6002816004811061015e57fe5b0154905081565b6000546001600160a01b031681565b6000546001600160a01b0316331461018b57600080fd5b6001600160a01b038116600090815260016020526040902054156101ae57600080fd5b6001600160a01b0316600090815260016020819052604090912081815501805460ff19169055565b600080805b60048160ff161015610223578160028260ff16600481106101f857fe5b0154111561021b5760028160ff166004811061021057fe5b015491508060ff1692505b6001016101db565b505090565b6001602081905260009182526040909120805491015460ff8082169161010090041683565b3360009081526001602081905260409091209081015460ff1680610275575060048260ff1610155b8061027f57508054155b1561028957600080fd5b6001818101805460ff191690911761ff00191661010060ff851690810291909117909155815490600290600481106102bd57fe5b0180549091019055505056fea265627a7a723158207697c4dd1d4141316792574590d66637908a69286132a93f627f9e5d65dc63fb64736f6c63430005100032",
  "source": "// SPDX-License-Identifier: GPL-3.0\npragma solidity ^0.5.12;\n\ncontract Ballot {\n    struct Voter {\n        uint weight;\n        bool voted;\n        uint8 vote;\n    }\n\n    modifier onlyOwner() {\n        require(msg.sender == chairperson);\n        _;\n    }\n\n    struct Proposal {\n        uint voteCount; //could add other data about Proposal\n    }\n\n    address public chairperson;\n    mapping(address => Voter) public voters;\n    uint[4] public proposals;\n\n    // Create a new ballot with 4 different proposals.\n    constructor() public {\n        chairperson = msg.sender;\n        voters[chairperson].weight = 1;\n    }\n\n    /// Give \\(toVoter) the right to vote on this ballot.\n    /// May only be called by \\(chairperson).\n    function register(address toVoter) public onlyOwner {\n        if (voters[toVoter].weight != 0) revert();\n        voters[toVoter].weight = 1;\n        voters[toVoter].voted = false;\n    }\n\n    /// Give a single vote to proposal \\(toProposal).\n    function vote(uint8 toProposal) public {\n        Voter storage sender = voters[msg.sender];\n        if (sender.voted || toProposal >= 4 || sender.weight == 0) revert();\n        sender.voted = true;\n        sender.vote = toProposal;\n        proposals[toProposal] += sender.weight;\n    }\n\n    function winningProposal() public view returns (uint winningProposal_) {\n        uint256 winningVoteCount = 0;\n        for (uint8 prop = 0; prop < 4; prop++) {\n            if (proposals[prop] > winningVoteCount) {\n                winningVoteCount = proposals[prop];\n                winningProposal_ = prop;\n            }\n        }\n    }\n}\n\n",
  "sourcePath": "/Users/khalifa/Documents/khalifa/project/Ballot1/contracts/Ballot.sol",
  "compiler": {
    "name": "solc",
    "version": "0.5.16+commit.9c3226ce.Emscripten.clang"
  },
  "schemaVersion": "3.4.16",
  "updatedAt": "2024-04-20T13:36:28.707Z",
  "networkType": "ethereum",
  "devdoc": {
    "methods": {}
  },
  "userdoc": {
    "methods": {
      "register(address)": {
        "notice": "Give \\(toVoter) the right to vote on this ballot. May only be called by \\(chairperson)."
      },
      "vote(uint8)": {
        "notice": "Give a single vote to proposal \\(toProposal)."
      }
    }
  }
}